:100000000C9463000C948B000C948B000C948B006C
:100010000C948B000C948B000C948B000C948B0034
:100020000C948B000C948B000C948B000C948B0024
:100030000C948B000C948B000C948B000C948B0014
:100040000C944C0D0C948B000C945C0C0C948B0059
:100050000C948B000C948B000C948B000C948B00F4
:100060000C948B000C948B000000000024002700EF
:100070002A0000000000250028002B0000000000DE
:1000800023002600290004040404040404040202DA
:100090000202020203030303030301020408102007
:1000A0004080010204081020010204081020000012
:1000B0000007000201000003040600000000000029
:1000C0000000A409150D11241FBECFEFD4E0DEBF40
:1000D000CDBF13E0A0E0B1E0E4E8F1E202C005909A
:1000E0000D92AC38B107D9F714E0ACE8B3E001C029
:1000F0001D92A135B107E1F710E0C6ECD0E004C0D5
:100100002297FE010E94BC10C23CD107C9F70E9491
:10011000550C0C94C0100C940000CF93DF93BC01DD
:100120008230910510F462E070E0A0914F04B0912C
:100130005004ED01E0E0F0E040E050E021C08881B3
:1001400099818617970769F48A819B81309719F006
:100150009383828304C09093500480934F04FE01E4
:1001600034C06817790738F44115510519F0841720
:10017000950708F4AC01FE018A819B819C01E9018D
:100180002097E9F641155105A9F1CA01861B970B85
:10019000049708F4BA01E0E0F0E02AC08D919C9148
:1001A000119784179507F9F46417750781F412966F
:1001B0008D919C911397309719F09383828304C09B
:1001C0009093500480934F04FD0132964CC0CA01B5
:1001D000861B970BFD01E80FF91F6193719302973E
:1001E0008D939C9340C0FD01828193819C01D90134
:1001F0001097A1F680914D0490914E04892B41F403
:10020000809148039091490390934E0480934D044C
:1002100040914A0350914B034115510541F44DB7AC
:100220005EB78091460390914703481B590B20917C
:100230004D0430914E04CA01821B930B8617970719
:1002400080F0AB014E5F5F4F8417950750F0420F6F
:10025000531F50934E0440934D04F90161937193E1
:1002600002C0E0E0F0E0CF01DF91CF910895CF939D
:10027000DF93009709F450C0EC0122971B821A8289
:10028000A0914F04B0915004109709F140E050E064
:10029000AC17BD0708F1BB83AA83FE012191319100
:1002A000E20FF31FAE17BF0779F48D919C91119760
:1002B000280F391F2E5F3F4F3983288312968D9167
:1002C0009C9113979B838A834115510571F4D093B8
:1002D0005004C0934F0420C012968D919C911397A7
:1002E000AD01009711F0DC01D3CFFA01D383C283B3
:1002F00021913191E20FF31FCE17DF0769F4888156
:100300009981280F391F2E5F3F4FFA0131832083D7
:100310008A819B8193838283DF91CF910895FC0131
:1003200088279927E89421912032E9F3293010F0A9
:100330002E30C8F32B3241F02D3239F4689404C0CA
:100340000E94E101820F911D219120532A30C0F3B8
:100350001EF4909581959F4F0895FC018191861719
:1003600021F08823D9F7992708953197CF0108956F
:10037000FB01DC014150504048F001900D920020FB
:10038000C9F701C01D9241505040E0F70895FB01AC
:1003900051915523A9F0BF01DC014D914517411141
:1003A000E1F759F4CD010190002049F04D9140153D
:1003B0004111C9F3FB014111EFCF81E090E00197BA
:1003C00008957AE0979F902D879F802D910D11249D
:1003D0000895FC018DE793E0918380836283089503
:1003E00020E0FC0182818F3F09F021E0822F0895F7
:1003F000FC018281982F80E08D5F9B4F0E94310627
:1004000008950F931F938C01DC0112968C910E942A
:100410004D05F80182810E941E05D8011296EC91CB
:10042000F0E0EE0FFF1FE457FC4F118210821F9186
:100430000F910895FC0182810E94F4060895CF93E4
:10044000DF93EC010E94F801843161F0882351F0C0
:100450008C3131F48A810E94F40620E0892B19F056
:1004600021E001C020E0822FDF91CF9108950F930A
:100470001F93DF93CF930F92CDB7DEB78C01FC01B2
:1004800082810E94F406892B19F42FEF3FEF0CC0F4
:10049000F8018281BE016F5F7F4F41E050E00E9412
:1004A000B1058981282F30E0C9010F90CF91DF91EC
:1004B0001F910F910895DF93CF930F92CDB7DEB7C1
:1004C0006983FC018281BE016F5F7F4F41E050E094
:1004D0000E94BD050F90CF91DF910895AF92BF921A
:1004E000CF92DF92EF92FF920F931F937B016A01ED
:1004F00059010E94C1060E94C70689E090E0B70139
:1005000046E050E00E9473068FE090E0B60144E0C0
:1005100050E00E94730681E090E0B50144E050E0B5
:100520000E94730685E090E0B80144E050E00E942C
:1005300073061F910F91FF90EF90DF90CF90BF90C7
:10054000AF9008950F931F93DF93CF9300D000D007
:10055000CDB7DEB7EFEFE983EA83EB831C828E0130
:100560000F5F1F4F0E946E020F900F900F900F9021
:10057000CF91DF911F910F9108950F931F93CF9308
:10058000DF938C01EB0109C02196D801ED91FC911C
:100590000190F081E02DC801099568816623A1F7DB
:1005A000DF91CF911F910F9108950F931F938C01AD
:1005B000DC01ED91FC910190F081E02D6DE0099559
:1005C000D801ED91FC910190F081E02DC8016AE025
:1005D00009951F910F9108950F931F938C010E940D
:1005E000BD02C8010E94D5021F910F9108952F925C
:1005F0003F924F925F926F927F928F929F92AF92B3
:10060000BF92CF92DF92EF92FF920F931F93DF93EF
:10061000CF93CDB7DEB7A0970FB6F894DEBF0FBE6D
:10062000CDBF1C016A017B014115510561057105B2
:1006300049F4DC01ED91FC910190F081E02D60E343
:10064000099554C0882499245401422E55246624C7
:10065000772401E010E00C0F1D1F080D191DC701C4
:10066000B601A30192010E946910F8016083089409
:10067000811C911CA11CB11CC701B601A3019201F0
:100680000E946910C901DA016C017D01C114D10415
:10069000E104F104F1F681E0E82EF12CEC0EFD1EF0
:1006A000E80CF91C3E010894611C711CD501C401C1
:1006B0000197A109B1096C01C818D90814C0F60145
:1006C000EE0DFF1D60816A3010F4605D01C0695C51
:1006D000D101ED91FC910190F081E02DC1010995CE
:1006E0000894E108F1086E147F0449F7A0960FB64C
:1006F000F894DEBF0FBECDBFCF91DF911F910F9158
:10070000FF90EF90DF90CF90BF90AF909F908F9031
:100710007F906F905F904F903F902F900895EF9251
:10072000FF920F931F93CF93DF93EC017A018B011C
:1007300077FF0FC0E881F9810190F081E02D6DE233
:10074000099510950095F094E094E11CF11C011DB1
:10075000111DCE01B801A7012AE00E94F702DF9126
:10076000CF911F910F91FF90EF900895AB016627F5
:1007700057FD6095762F0E948F030895FC0183E852
:1007800093E091838083738362830895CF92DF9295
:10079000EF92FF920F931F93DF93CF93CDB7DEB706
:1007A00027970FB6F894DEBF0FBECDBF6C0100E0F7
:1007B00010E07E010894E11CF11CC701602F0E942B
:1007C000E901C7010E94F8018823B1F4F6014281D2
:1007D0005381802F61E020E00E946C05802F0E94F1
:1007E0003105000F111F04571C4FF60182819381C0
:1007F000F8019183808305C00F5F1F4F04301105FE
:10080000E1F627960FB6F894DEBF0FBECDBFCF91AD
:10081000DF911F910F91FF90EF90DF90CF9008959F
:100820008F929F92AF92BF92DF92EF92FF920F93BF
:100830001F93DF93CF93CDB7DEB727970FB6F8940A
:10084000DEBF0FBECDBF4C010CE813E0AA24BB24D1
:10085000DD247E010894E11CF11CC7016D2D0E946E
:10086000E901F80120813181F40182819381281707
:100870003907B1F4C7010E94F801843121F491E0F5
:10088000A92EB12C0DC0C7010E94F8018C3141F492
:10089000C7010E941A02892B19F4C7010E940102A4
:1008A000D3940E5F1F4FF4E0DF16B9F6AB2819F4AE
:1008B000C4010E94C60327960FB6F894DEBF0FBE90
:1008C000CDBFCF91DF911F910F91FF90EF90DF90FF
:1008D000BF90AF909F908F900895AF92BF92CF92AC
:1008E000DF92EF92FF920F931F93DF93CF93CDB7D9
:1008F000DEB727970FB6F894DEBF0FBECDBF5C0101
:10090000E62E0E9410040CE813E0FF246E01089408
:10091000C11CD11CC6016F2D0E94E901F801208184
:100920003181F501828193812817390749F4C60185
:100930000E94F801873121F4C6016E2D0E945B02EE
:10094000F3940E5F1F4FF4E0FF1621F727960FB6C2
:10095000F894DEBF0FBECDBFCF91DF911F910F91F5
:10096000FF90EF90DF90CF90BF90AF9008959F924F
:10097000AF92BF92CF92DF92EF92FF920F931F93AD
:10098000DF93CF93CDB7DEB727970FB6F894DEBFCE
:100990000FBECDBFE82E992E5B01CB010E94100443
:1009A0000CE813E0FF246E010894C11CD11CC601A1
:1009B0006F2D0E94E901F80120813181F5018281CA
:1009C000938128173907D9F4C6010E94F8018731AD
:1009D000B1F4C6010E941A02892B89F0EE2DF92D7F
:1009E0008DE793E0918380838B8182838C819D81CD
:1009F000948383838E819F81968385830BC0F39438
:100A00000E5F1F4FF4E0FF1691F68E2D992D6FEFBC
:100A10000E94E9018E2D992D27960FB6F894DEBF1E
:100A20000FBECDBFCF91DF911F910F91FF90EF903F
:100A3000DF90CF90BF90AF909F900895CF93DF93BA
:100A400090E0D82FCC27CF5FDB4FCE0168E00E942B
:100A50001506CE010E9431068823D9F7DF91CF9188
:100A60000895CF93DF9390E00496D82FCC27CE0142
:100A700003960E943106833111F080E00BC021966D
:100A8000CE0162E00E941506CE010E943106882345
:100A9000D9F781E0DF91CF9108950F931F93CF9302
:100AA000DF93082F10E00C5F1F4FD02FCC2721962B
:100AB000CE0160E10E941506CE010E943106882316
:100AC000D9F7902F882702966FEF0E941506DF91C5
:100AD000CF911F910F910895CF92DF92EF92FF92E5
:100AE0000F931F93CF93DF93082FC62EEA01D22EC8
:100AF000862F8150853010F080E02AC0802F0E9420
:100B00004D05209751F4C0919503D09196032196FD
:100B1000D0939603C0939503219710E00C5F1F4F6D
:100B2000F02EEE24DC28C7016D2D0E941506C701AA
:100B30000496BE010E946206E7012196CE0161E0A3
:100B40000E941506CE010E9431068823D9F781E064
:100B5000DF91CF911F910F91FF90EF90DF90CF9099
:100B60000895CF93DF93EA014115510511F00E94DA
:100B7000CD07CE01DF91CF9108958F929F92BF92C2
:100B8000CF92DF92EF92FF920F931F93CF93DF9359
:100B9000B82E4B018A0188E04130580710F000E080
:100BA00018E0CB2DD0E02496FC2EEE2483E090E0DC
:100BB000E80EF91E8B2D0E94D2066C01C7010E941F
:100BC0003106873129F08C3119F000E010E003C0C4
:100BD000C016D10678F38B2DB401A8010E945007EE
:100BE000DC2FCC2722960BC0C7010E943106882338
:100BF00031F48B2D0E944D0500E010E009C0CE01BC
:100C00000E94310684FFF0CFCE0160E10E941506FC
:100C1000C801DF91CF911F910F91FF90EF90DF906E
:100C2000CF90BF909F908F900895282F84B18C62B1
:100C300084B984E085B980E58CBD2A9880EF8EBDAB
:100C40000DB407FEFDCF9EBD0DB407FEFDCF2EBD3A
:100C50000DB407FEFDCF6EBD0DB407FEFDCF2A9A81
:100C60000895282F84B18C6284B984E085B980E529
:100C70008CBD2A988FE08EBD0DB407FEFDCF9EBDC2
:100C80000DB407FEFDCF2EBD0DB407FEFDCF1EBC7B
:100C90000DB407FEFDCF8EB52A9A0895FF920F93EB
:100CA0001F938C010E943106F82EC80101960E9404
:100CB00031063F2D20E0280F311DC9011F910F91F2
:100CC000FF900895FF920F931F938C01F62E672FCC
:100CD0000E941506C80101966F2D0E9415061F91EE
:100CE0000F91FF9008959C01FB0184B18C6284B93F
:100CF00084E085B980E58CBD90EF18C02A989EBD30
:100D00000DB407FEFDCF3EBD0DB407FEFDCF2EBDD9
:100D10000DB407FEFDCF80818EBD0DB407FEFDCF63
:100D20002F5F3F4F31962A9A41505040411551054F
:100D300029F708959C01FB0184B18C6284B984E099
:100D400085B980E58CBD9FE018C02A989EBD0DB482
:100D500007FEFDCF3EBD0DB407FEFDCF2EBD0DB489
:100D600007FEFDCF1EBC0DB407FEFDCF2F5F3F4F2A
:100D70008EB581932A9A415050404115510529F76B
:100D8000089580E090E860E80E94150608958BE1E0
:100D900090E065E50E9415068AE190E065E50E9415
:100DA00015060895EF92FF920F931F93CF93DF9351
:100DB00090E0182F0027005E1B4FC0E0D0E0C80174
:100DC0000E944E067C01009721F0C8010E944E0649
:100DD000EC01CE15DF0599F7CE01DF91CF911F9180
:100DE0000F91FF90EF900895EF92FF920F931F9352
:100DF000CF93DF9390E0182F00270A5D1B4FC0E0D0
:100E0000D0E0C8010E944E067C01009721F0C80185
:100E10000E944E06EC01CE15DF0599F7CE01DF9159
:100E2000CF911F910F91FF90EF900895CF92DF9295
:100E3000EF92FF920F931F93CF93DF936B01790192
:100E40005770382F330F330F330F20E0E901D06490
:100E50009E01240F351FCA018E0D9F1D81509840A1
:100E600018F4C90197010FC000E018E0041B150B2E
:100E7000C901B601A8010E947306C00ED11E9701D8
:100E8000201B310BCE01B601A9010E947306DF9130
:100E9000CF911F910F91FF90EF90DF90CF90089529
:100EA0007F928F929F92AF92BF92CF92DF92EF92FA
:100EB000FF920F931F93782E4B015A01E82EFF24C7
:100EC00084E090E0E80EF91EFE2CEE2444E2C42EED
:100ED000D12CCE0CDF1CC6010E944E068C01872D42
:100EE000B401A80195010E9416070A0D1B1DC60139
:100EF000B8010E9462060894E11CF11CC70160E27F
:100F00000E941506C7010E9431068823D9F71F9158
:100F10000F91FF90EF90DF90CF90BF90AF909F9098
:100F20008F907F900895CF92DF92EF92FF920F9370
:100F30001F93CF93DF936A0179017770382F330FB6
:100F4000330F330F20E0E901D0669E01260F371FD3
:100F5000CB018E0D9F1D8150984018F4C901970157
:100F60000FC000E018E0061B170BC901B601A8016D
:100F70000E949A06C00ED11E9701201B310BCE0194
:100F8000B601A9010E949A06DF91CF911F910F919E
:100F9000FF90EF90DF90CF9008957F928F929F9275
:100FA000AF92BF92CF92DF92EF92FF920F931F9377
:100FB000782E4B015A01E82EFF2484E090E0E80EE1
:100FC000F91EFE2CEE2468E2C62ED12CCE0CDF1CBE
:100FD000C6010E944E068C01872DB801A40195011F
:100FE0000E9493070A0D1B1DC601B8010E946206EC
:100FF0000894E11CF11CC70160E40E941506C701BA
:101000000E9431068823D9F71F910F91FF90EF902E
:10101000DF90CF90BF90AF909F908F907F9008957A
:10102000CF93DF93FC01828193814817590768F4BD
:10103000C081D181772767FD7095CE01840F951F00
:101040000E94AD019C01009719F42FEF3FEF02C001
:101050002C1B3D0BC901DF91CF91089540E050E07A
:101060000E94100808950F931F93CF93DF93EC0114
:101070008B01CB0101960E948D00888399831D838B
:101080000C831B821A8220E030E007C0E881F981DE
:10109000E20FF31F10822F5F3F4F8C819D81281735
:1010A0003907A0F3DF91CF911F910F910895FC01B3
:1010B000808191810E94C7019C0180E0232B09F06F
:1010C00081E008950F931F938C01DC0112964D91DE
:1010D0005C9113974F5F5F4F8D919C910E94B80177
:1010E000D801ED91FC91119712968D919C911397D7
:1010F000E80FF91F10821F910F9108950F931F930E
:10110000CF93DF93EC018B016115710511F400E0C1
:1011100011E0F80101900020E9F73197E01BF10B95
:10112000FB83EA83FD83EC83CF0101960E948D004F
:101130008883998320E030E007C0E881F981E20FDD
:10114000F31F10822F5F3F4F8C819D812817390735
:10115000A0F3B801CE010E946208DF91CF911F91E8
:101160000F910895CF92DF92EF92FF921F93CF934A
:10117000DF936C017B01E9012417350714F4EA01C0
:10118000A901D70112968D919C9113978C179D07F9
:1011900020F481E090E00E94C010D701ED91FC9115
:1011A0001197EC0FFD1F108110826D917C91640FDF
:1011B000751FC6010E947E08D701ED91FC91EC0FCE
:1011C000FD1F1083C601DF91CF911F91FF90EF901B
:1011D000DF90CF900895FF920F931F93CF93DF93EB
:1011E000EC01F62E2A813B818C819D8128173907DD
:1011F000A1F408811981C9010196880F991F9D8367
:101200008C8301960E948D0088839983B801CE015A
:101210000E946208C8010E9437018A819B81E8818F
:10122000F981E80FF91FF08201969B838A83E88198
:10123000F981E80FF91F1082CE01DF91CF911F9144
:101240000F91FF9008950E94EB0808950F931F934C
:10125000CF93DF93EC018B016115710511F400E070
:1012600011E0D8010D900020E9F71197A01BB10BF8
:10127000BB83AA838C819D818A179B0768F4BD83F9
:10128000AC83888199810E9437018A819B81019674
:101290000E948D008883998320E030E007C0E881B8
:1012A000F981E20FF31F10822F5F3F4F8C819D81E8
:1012B00028173907A0F3B801CE010E946208CE01B9
:1012C000DF91CF911F910F9108950F931F93CF93AB
:1012D000DF93EC018B018617970781F1FB012281D7
:1012E00033818C819D818217930770F48881998165
:1012F0000E943701F801828193819D838C8301963E
:101300000E948D0088839983F801828193819B8359
:101310008A8320E030E007C0E881F981E20FF31F03
:1013200010822F5F3F4F8C819D8128173907A0F3D2
:10133000F80160817181CE010E946208CE01DF91C7
:10134000CF911F910F91089587E993E069E170E0D3
:101350000E94330884EA93E060E570E00E94BE03D7
:1013600008950E94BC0D9B01AC012D3D84E238071D
:1013700086E0480781E0580718F081E08093A803D1
:101380008091A803813081F42C5D34424640514065
:1013900058F48091A9039091AA0301969093AA030F
:1013A0008093A9031092A8038091A9039091AA03A6
:1013B0000895CF93DF9380914C030E94B90EEC0106
:1013C000009709F58091660390916703019731F5C5
:1013D0008091A303882311F581E08093A30360919A
:1013E000680370916903882777FD8095982F0E9484
:1013F000CA0D80919D0390919E03019690939E0348
:1014000080939D030BC08130910541F48091660368
:1014100090916703892B11F41092A303D093670373
:10142000C0936603DF91CF910895EF92FF920F93DF
:101430001F93E0906203F0906303009164031091A6
:101440006503809152030E942E0EAA2797FDA09556
:10145000BA2FBC01CD010E943F0F20E030E048ECE4
:1014600052E40E94CB0F20E030E040E85AE30E94B3
:10147000CB0F9B01AC01C801B7010E94CB0F7B01D0
:101480008C0160939F037093A0038093A1039093BA
:10149000A20360915E0370915F03882777FD8095BA
:1014A000982F0E943F0F9B01AC01C801B7010E9419
:1014B000C70F181644F4C801B7010E940C0F7093AF
:1014C0005F0360935E0360916003709161038827FE
:1014D00077FD8095982F0E943F0F9B01AC01C801BA
:1014E000B7010E94080F882344F4C801B7010E9485
:1014F0000C0F70936103609360031F910F91FF9035
:10150000EF90089560919F037091A0038091A103D3
:101510009091A203209156033091570340915803B4
:10152000509159030E94C70F88232CF080915003DB
:1015300061E00E946C0E60919F037091A003809106
:10154000A1039091A20320915A0330915B03409133
:101550005C0350915D030E94080F18162CF08091D7
:10156000500360E00E946C0E0895CF92DF92EF92DC
:10157000FF920F931F93DF93CF93CDB7DEB763979F
:101580000FB6F894DEBF0FBECDBF8E01035F1F4FB5
:10159000C80164EA73E00E94B704C8010E94F00128
:1015A000882309F41FC18FE294E065E071E00E9496
:1015B000EC02CC24C394C801E02E192FFCC08E2D60
:1015C000912F0E941A02892B09F4F5C08E2D912FBC
:1015D0000E943702082F2091990330919A0380913D
:1015E000540390915503281739072CF487E993E0A9
:1015F000602F0E9423090A3009F0DAC0CC2019F4C8
:10160000CC24C394D8C08E01035F1F4FC80162E28F
:1016100071E00E94EC02C80162E371E00E94EC02FA
:10162000C8010E94D50288E00E94B90E8C0187E9AA
:1016300093E069E471E00E945708882309F441C0EF
:1016400001301105F1F560919703709198038FE2D5
:1016500094E00E94EC026E010894C11CD11CC601EA
:101660006AE070E00E94330887E993E06DE370E080
:101670000E942E088C0187E993E068E470E00E94E4
:101680002E089C0197E0E92EF12CEC0EFD1E0F5F59
:101690001F4FC70167E973E0A8010E94B208C601A5
:1016A000B7010E94650969817A818FE294E00E9406
:1016B000EC0289819A810E948F0190939E0380930E
:1016C0009D030E94B10960919F037091A0038091D6
:1016D000A1039091A2030E940C0F7B018C018DE06D
:1016E000C82ED12CCC0EDD1EC6016BE471E00E9429
:1016F000EC02C60161E072E00E94EC02C6016FE0FC
:1017000072E00E94EC02C60162E572E00E94EC0207
:10171000C6016EE672E00E94EC02C6016AE772E062
:101720000E94EC02C60168E872E00E94EC02C60169
:101730006EEA72E00E94BD0260919D0370919E036B
:10174000C6010E94B603C60166EB72E00E94EC027D
:10175000C6016FEB72E00E94EC02C60167EC72E01A
:101760000E94EC02C60165ED72E00E94EC02C60127
:101770006EEA72E00E94BD02C601B7010E94B60384
:10178000C60166EB72E00E94BD02C6016FEB72E01B
:101790000E94EC02C60160E173E00E94EC02C60107
:1017A0006FE173E00E94EC02C6010E94D5020AC0FC
:1017B0000D3009F0CC248E2D912F0E941F0288231A
:1017C00009F0FDCE87E993E067E273E00E94260905
:1017D00065E070E080E090E00E94CA0DCE010D96B9
:1017E0000E94010263960FB6F894DEBF0FBECDBF14
:1017F000CF91DF911F910F91FF90EF90DF90CF90ED
:1018000008951F930E94820A0E94D9090E94150A16
:101810000E94B50A10914E0380914C030E94B90EAC
:1018200060E0892B09F461E0812F0E946C0E1F910A
:1018300008950F931F9380914E0361E00E944C0E18
:101840008091500361E00E944C0E80914C0360E057
:101850000E944C0E88E060E00E944C0E80914C0388
:101860000E94B90E90936703809366030FE214E021
:10187000C80140E052EC61E070E00E94990CC801A0
:1018800068E273E00E94EC0284E993E06AE673E0A8
:1018900040E753E024E733E00E94A20284EA93E0A9
:1018A0000E94C6031F910F9108950E94F40D0E949B
:1018B000190C0E94010CFDCF1F920F920FB60F92D0
:1018C00011242F933F934F935F936F937F938F9345
:1018D0009F93AF93BF93EF93FF934091C600E09126
:1018E0002B04F0912C04CF01019660E870E00E9477
:1018F00056109C0180912D0490912E0428173907D1
:1019000039F0E555FC4F408330932C0420932B0491
:10191000FF91EF91BF91AF919F918F917F916F91C7
:101920005F914F913F912F910F900FBE0F901F909D
:101930001895AF92BF92CF92DF92EF92FF920F93E2
:101940001F93CF93DF936C017A018B01DC01149616
:10195000AD90BC901597CB01BA0122E030E040E099
:1019600050E00E948B10205C3D4B404F5F4FCA01FE
:10197000B901A80197010E948B10C901DA010197F2
:10198000A109B109292F3A2F4B2F552747FD5A9509
:101990000196A11DB11DE5012883E601EE81FF81BD
:1019A00081508083EA85FB85208141E050E0CA01B7
:1019B0000E8402C0880F991F0A94E2F7282B208317
:1019C000EA85FB852081CA010F8402C0880F991F18
:1019D0000A94E2F7282B2083EA85FB85808108881A
:1019E00002C0440F551F0A94E2F7842B8083DF91D5
:1019F000CF911F910F91FF90EF90DF90CF90BF900C
:101A0000AF900895FC01A085B18521898C9190E06B
:101A1000022E02C0959587950A94E2F780FFF6CFD3
:101A20000484F585E02D6083089589E893E0909320
:101A3000300480932F048BEA93E0909332048093D8
:101A4000310485EC90E0909334048093330484EC6B
:101A500090E0909336048093350480EC90E090936E
:101A600038048093370481EC90E090933A0480939B
:101A7000390486EC90E090933C0480933B0484E02E
:101A800080933D0483E080933E0487E080933F048D
:101A900085E08093400408951F920F920FB60F9235
:101AA00011242F938F939F93AF93BF938091410401
:101AB00090914204A0914304B09144040196A11D69
:101AC000B11D8093410490934204A0934304B093CA
:101AD00044048091450490914604A0914704B0913C
:101AE00048048050904CAF4FBF4F80934504909373
:101AF0004604A0934704B093480427C0809145044E
:101B000090914604A0914704B091480480589E43A8
:101B1000A040B0408093450490934604A0934704AE
:101B2000B09348048091490490914A04A0914B04D9
:101B3000B0914C040196A11DB11D8093490490936E
:101B40004A04A0934B04B0934C04809145049091B7
:101B50004604A0914704B091480481589E43A04098
:101B6000B04060F6BF91AF919F918F912F910F90F0
:101B70000FBE0F901F9018958FB7F89420914904CD
:101B800030914A0440914B0450914C048FBFB901ED
:101B9000CA010895EF92FF920F931F937B018C016E
:101BA0008FB7F8944091490450914A0460914B04D6
:101BB00070914C048FBF2FB7F89480914904909195
:101BC0004A04A0914B04B0914C042FBF841B950B89
:101BD000A60BB70BE816F9060A071B0760F71F915B
:101BE0000F91FF90EF900895789484B5826084BD42
:101BF00084B5816084BD85B5826085BD85B5816011
:101C000085BDEEE6F0E0808181608083E1E8F0E070
:101C1000808182608083808181608083E0E8F0E061
:101C2000808181608083E1EBF0E08081846080834B
:101C3000E0EBF0E0808181608083EAE7F0E0808182
:101C400084608083808182608083808181608083E2
:101C50008081806880831092C10008958770909180
:101C600078039295990F990F907C982B90937C0014
:101C700080917A00806480937A0080917A0086FD5A
:101C8000FCCF2091780040917900942F80E030E0E3
:101C9000282B392BC9010895282F30E0C901865619
:101CA0009F4FFC0194912A573F4FF901849188235B
:101CB00091F0E82FF0E0EE0FFF1FE859FF4FA591DC
:101CC000B491662329F48C91909589238C9308957F
:101CD0008C91892B8C930895482F50E0CA0182552E
:101CE0009F4FFC012491CA0186569F4FFC0194919D
:101CF0004A575F4FFA0134913323D1F1222331F156
:101D0000233021F4809180008F7705C0243031F496
:101D1000809180008F7D8093800018C0213019F45D
:101D200084B58F7704C0223021F484B58F7D84BDC3
:101D30000DC0263021F48091B0008F7705C0273088
:101D400029F48091B0008F7D8093B000E32FF0E004
:101D5000EE0FFF1FEE58FF4FA591B491662329F4B3
:101D60008C91909589238C9308958C91892B8C93D9
:101D70000895682F70E0CB0182559F4FFC0124919C
:101D8000CB0186569F4FFC0144916A577F4FFB0160
:101D90009491992319F420E030E038C0222331F1E6
:101DA000233021F4809180008F7705C0243031F4F6
:101DB000809180008F7D8093800018C0213019F4BD
:101DC00084B58F7704C0223021F484B58F7D84BD23
:101DD0000DC0263021F48091B0008F7705C02730E8
:101DE00029F48091B0008F7D8093B000892F90E01E
:101DF000880F991F84589F4FFC01A591B4918C9135
:101E000020E030E0842311F021E030E0C9010895A2
:101E100071D008F481E0089504D06894B111B1C084
:101E2000089594D088F09F5790F0B92F9927B75113
:101E3000A0F0D1F0660F771F881F991F1AF0BA958E
:101E4000C9F712C0B13081F09BD0B1E0089598C0BD
:101E5000672F782F8827B85F39F0B93FCCF3869584
:101E600077956795B395D9F73EF4909580957095E1
:101E700061957F4F8F4F9F4F0895E89409C097FB5E
:101E80003EF490958095709561957F4F8F4F9F4F51
:101E90009923A9F0F92F96E9BB279395F695879595
:101EA00077956795B795F111F8CFFAF4BB0F11F458
:101EB00060FF1BC06F5F7F4F8F4F9F4F16C08823FF
:101EC00011F096E911C0772321F09EE8872F762F35
:101ED00005C0662371F096E8862F70E060E02AF076
:101EE0009A95660F771F881FDAF7880F9695879562
:101EF00097F90895990F0008550FAA0BE0E8FEEF37
:101F000016161706E807F907C0F012161306E407BD
:101F1000F50798F0621B730B840B950B39F40A26B6
:101F200061F0232B242B252B21F408950A2609F494
:101F3000A140A6958FEF811D811D089557FD9058F2
:101F4000440F551F59F05F3F71F04795880F97FB7D
:101F5000991F61F09F3F79F0879508951216130637
:101F60001406551FF2CF4695F1DF08C01616170666
:101F70001806991FF1CF869571056105089408959B
:101F8000E894BB2766277727CB0197F90895B2DF3E
:101F900008F48FEF08950BD078C069D028F06ED088
:101FA00018F0952309F05AC05FC01124EACFC6DFAC
:101FB000A0F3959FD1F3950F50E0551F629FF0015C
:101FC000729FBB27F00DB11D639FAA27F00DB11DB5
:101FD000AA1F649F6627B00DA11D661F829F22273E
:101FE000B00DA11D621F739FB00DA11D621F839FC5
:101FF000A00D611D221F749F3327A00D611D231F9B
:10200000849F600D211D822F762F6A2F11249F57E8
:1020100050408AF0E1F088234AF0EE0FFF1FBB1F0B
:10202000661F771F881F91505040A9F79E3F5105AA
:1020300070F014C0A6CF5F3FECF3983EDCF38695BA
:1020400077956795B795F795E7959F5FC1F7FE2B55
:10205000880F911D9695879597F9089597F99F6731
:1020600080E870E060E008959FEF80EC0895002420
:102070000A941616170618060906089500240A94ED
:1020800012161306140605060895092E0394000C73
:1020900011F4882352F0BB0F40F4BF2B11F460FF02
:1020A00004C06F5F7F4F8F4F9F4F089597FB092E9E
:1020B00007260AD077FD04D049D006D000201AF4B4
:1020C000709561957F4F0895F6F7909581959F4F94
:1020D0000895A1E21A2EAA1BBB1BFD010DC0AA1F69
:1020E000BB1FEE1FFF1FA217B307E407F50720F081
:1020F000A21BB30BE40BF50B661F771F881F991FFC
:102100001A9469F760957095809590959B01AC0144
:10211000BD01CF01089597FB092E05260ED057FD6E
:1021200004D0D7DF0AD0001C38F450954095309584
:1021300021953F4F4F4F5F4F0895F6F7909580954B
:10214000709561957F4F8F4F9F4F0895AA1BBB1BC2
:1021500051E107C0AA1FBB1FA617B70710F0A61BA7
:10216000B70B881F991F5A95A9F780959095BC01C8
:10217000CD010895EE0FFF1F0590F491E02D099415
:04218000F894FFCF01
:1021840000302E340045746865726E657420636C8B
:1021940069656E7420636F6E6E65637465642E2E5C
:1021A4002E00485454502F312E3120323030204FDD
:1021B4004B00436F6E74656E742D547970653A20CC
:1021C400746578742F786D6C0078003C65656D6C6F
:1021D40020786D6C6E733D27687474703A2F2F7776
:1021E40077772E65656D6C2E6F72672F7873642F09
:1021F4003030352720786D6C6E733A7873693D27DB
:10220400687474703A2F2F7777772E77332E6F7226
:10221400672F323030312F584D4C536368656D61F0
:102224002D696E7374616E636527207873693A73E0
:102234006368656D614C6F636174696F6E3D276897
:102244007474703A2F2F7777772E65656D6C2E6FC7
:1022540072672F7873642F30303520687474703A45
:102264002F2F7777772E65656D6C2E6F72672F78B9
:1022740073642F3030352F3030352E787364273E19
:10228400003C656E7669726F6E6D656E743E003CDF
:102294006C6F636174696F6E206578706F737572AB
:1022A400653D27696E646F6F722720646F6D616985
:1022B4006E3D27706879736963616C272064697364
:1022C400706F736974696F6E3D27666978656427FA
:1022D4003E003C6E616D653E4172647567617320BA
:1022E4005365727665723C2F6E616D653E003C2FBE
:1022F4006C6F636174696F6E3E003C64617461204D
:1023040069643D2730273E003C7461673E67617312
:102314003C2F7461673E3C7461673E637562696318
:10232400206D65747265733C2F7461673E003C7662
:10233400616C75653E003C2F76616C75653E003CB2
:102344002F646174613E003C646174612069643D82
:102354002731273E003C7461673E74656D70657279
:1023640061747572653C2F7461673E3C7461673EAD
:10237400646567726565733C2F7461673E3C746184
:10238400673E63656C736975733C2F7461673E00C7
:102394003C2F656E7669726F6E6D656E743E003C9F
:1023A4002F65656D6C3E0000417264756761732032
:1023B40073657276657220736179696E673A204835
:1023C4006F776479210020005104000005000900A2
:1023D4000700030019000000D0410000C0419CFF29
:1023E4006400EC51A040FEFFDC0502AAAACC002246
:1023F400C0A80163C0A8010201000000005B020044
:0C2404000000006D0400000000020D004C
:00000001FF
